:020000040800F2
:10000000000002200D1E0008E11B0008E71B00088D
:10001000ED1B0008F31B0008F91B0008000000009E
:10002000000000000000000000000000FF1B0008AE
:100030000D1C0008000000001B1C0008291C000803
:100040005D1E00085D1E00085D1E00085D1E0008A4
:100050005D1E00085D1E00085D1E00085D1E000894
:100060005D1E00085D1E00085D1E00085D1E000884
:100070005D1E00085D1E00085D1E00085D1E000874
:100080005D1E00085D1E00085D1E00085D1E000864
:100090005D1E00085D1E00085D1E00085D1E000854
:1000A0005D1E00085D1E00085D1E00085D1E000844
:1000B0005D1E0008351C00085D1E00085D1E00085E
:1000C0005D1E00085D1E00085D1E00085D1E000824
:1000D0005D1E00085D1E0008491C00085D1E00082A
:1000E0005D1E00085D1E00085D1E00085D1E000804
:1000F0005D1E00085D1E00085D1E00085D1E0008F4
:100100005D1E00085D1E00085D1E00085D1E0008E3
:100110005D1E00085D1E00085D1E00085D1E0008D3
:100120005D1E00085D1E00085D1E00085D1E0008C3
:100130005D1E00085D1E00085D1E00085D1E0008B3
:100140005D1E00085D1E00085D1E00085D1E0008A3
:100150005D1E00085D1E00085D1E00085D1E000893
:100160005D1E00085D1E00085D1E00085D1E000883
:100170005D1E00085D1E00085D1E000800000000F6
:080180005D1E00085D1E000871
:1001900010B5054C237833B9044B13B10448AFF3C1
:1001A00000800123237010BDE40100200000000046
:1001B000609F000808B5034B1BB103490348AFF328
:1001C000008008BD00000000E8010020609F0008DA
:1001D000034613F8012B002AFBD1181A0138704787
:1001E00001F0FF01102A2BDB10F0070F08D010F8E8
:1001F000013B013A8B422DD010F0070F42B3F6D1EC
:10020000F0B441EA012141EA014122F007047FF004
:1002100000070023F0E80256083C85EA010586EA5B
:10022000010685FA47F5A3FA87F586FA47F6A5FA97
:1002300087F68EB9EED1F0BC01F0FF0102F00702A3
:1002400032B110F8013B013A83EA010313B1F8D14E
:100250000020704701387047002D06BF354603382F
:10026000073815F0010F07D1013015F4807F02BF68
:10027000013015F4C03F0130F0BC0138704700BFB9
:1002800081F0004102E000BF83F0004330B54FEA47
:1002900041044FEA430594EA050F08BF90EA020FB4
:1002A0001FBF54EA000C55EA020C7FEA645C7FEA47
:1002B000655C00F0E2804FEA5454D4EB5555B8BF6A
:1002C0006D420CDD2C4480EA020281EA030382EADB
:1002D000000083EA010180EA020281EA0303362D6D
:1002E00088BF30BD11F0004F4FEA01314FF4801C40
:1002F0004CEA113102D0404261EB410113F0004F52
:100300004FEA03334CEA133302D0524263EB430308
:1003100094EA050F00F0A780A4F10104D5F1200EA6
:100320000DDB02FA0EFC22FA05F2801841F1000101
:1003300003FA0EF2801843FA05F359410EE0A5F1D5
:1003400020050EF1200E012A03FA0EFC28BF4CF006
:10035000020C43FA05F3C01851EBE37101F00045BC
:1003600007D54FF0000EDCF1000C7EEB00006EEBC9
:100370000101B1F5801F1BD3B1F5001F0CD3490853
:100380005FEA30004FEA3C0C04F101044FEA4452AA
:1003900012F5800F80F09A80BCF1004F08BF5FEA31
:1003A000500C50F1000041EB045141EA050130BD11
:1003B0005FEA4C0C404141EB0101013C28BFB1F523
:1003C000801FE9D291F0000F04BF01460020B1FA6E
:1003D00081F308BF2033A3F10B03B3F120020CDA41
:1003E0000C3208DD02F1140CC2F10C0201FA0CF01F
:1003F00021FA02F10CE002F11402D8BFC2F1200C84
:1004000001FA02F120FA0CFCDCBF41EA0C01904039
:10041000E41AA2BF01EB0451294330BD6FEA040482
:100420001F3C1CDA0C340EDC04F11404C4F120026D
:1004300020FA04F001FA02F340EA030021FA04F37F
:1004400045EA030130BDC4F10C04C4F1200220FAD6
:1004500002F001FA04F340EA0300294630BD21FA14
:1004600004F0294630BD94F0000F83F4801306BFDA
:1004700081F480110134013D4EE77FEA645C18BFCE
:100480007FEA655C29D094EA050F08BF90EA020F65
:1004900005D054EA000C04BF1946104630BD91EA5D
:1004A000030F1EBF0021002030BD5FEA545C05D160
:1004B0004000494128BF41F0004130BD14F580049F
:1004C0003CBF01F5801130BD01F0004545F0FE4113
:1004D00041F470014FF0000030BD7FEA645C1ABF48
:1004E000194610467FEA655C1CBF0B46024650EA7F
:1004F000013406BF52EA033591EA030F41F40021AB
:1005000030BD00BF90F0000F04BF0021704730B530
:100510004FF4806404F132044FF000054FF0000105
:1005200050E700BF90F0000F04BF0021704730B5C6
:100530004FF4806404F1320410F0004548BF40429B
:100540004FF000013EE700BF42004FEAE2014FEAF0
:1005500031014FEA02701FBF12F07F4393F07F4FCB
:1005600081F06051704732F07F4208BF704793F0CE
:100570007F4F04BF41F40021704730B54FF46074E1
:1005800001F0004521F000411CE700BF50EA0102E4
:1005900008BF704730B54FF000050AE050EA01028D
:1005A00008BF704730B511F0004502D5404261EBFD
:1005B00041014FF4806404F132045FEA915C3FF43E
:1005C000D8AE4FF003025FEADC0C18BF03325FEADB
:1005D000DC0C18BF033202EBDC02C2F1200300FA8C
:1005E00003FC20FA02F001FA03FE40EA0E0021FAB1
:1005F00002F11444BDE600BF70B54FF0FF0C4CF49F
:10060000E06C1CEA11541DBF1CEA135594EA0C0F50
:1006100095EA0C0F00F0DEF82C4481EA030621EA8B
:100620004C5123EA4C5350EA013518BF52EA0335C6
:1006300041F4801143F4801338D0A0FB02CE4FF078
:100640000005E1FB02E506F00042E0FB03E54FF0A8
:100650000006E1FB03569CF0000F18BF4EF0010EA0
:10066000A4F1FF04B6F5007F64F5407404D25FEA9C
:100670004E0E6D4146EB060642EAC62141EA55514F
:100680004FEAC52040EA5E504FEACE2EB4F1FD0C91
:1006900088BFBCF5E06F1ED8BEF1004F08BF5FEA0F
:1006A000500E50F1000041EB045170BD06F00046C1
:1006B00046EA010140EA020081EA0301B4EB5C046E
:1006C000C2BFD4EB0C0541EA045170BD41F4801166
:1006D0004FF0000E013C00F3AB8014F1360FDEBF8B
:1006E000002001F0004170BDC4F10004203C35DA67
:1006F0000C341BDC04F11404C4F1200500FA05F3EA
:1007000020FA04F001FA05F240EA020001F000428A
:1007100021F0004110EBD37021FA04F642EB060100
:100720005EEA430E08BF20EAD37070BDC4F10C042A
:10073000C4F1200500FA04F320FA05F001FA04F2EE
:1007400040EA020001F0004110EBD37041F10001DA
:100750005EEA430E08BF20EAD37070BDC4F12005E5
:1007600000FA05F24EEA020E20FA04F301FA05F24D
:1007700043EA020321FA04F001F0004121FA04F2F5
:1007800020EA020000EBD3705EEA430E08BF20EAC5
:10079000D37070BD94F0000F0FD101F000464000FF
:1007A00041EB010111F4801F08BF013CF7D041EA81
:1007B000060195F0000F18BF704703F00046520085
:1007C00043EB030313F4801F08BF013DF7D043EA56
:1007D0000603704794EA0C0F0CEA135518BF95EA0C
:1007E0000C0F0CD050EA410618BF52EA4306D1D193
:1007F00081EA030101F000414FF0000070BD50EAB2
:10080000410606BF1046194652EA430619D094EA3B
:100810000C0F02D150EA013613D195EA0C0F05D125
:1008200052EA03361CBF104619460AD181EA030179
:1008300001F0004141F0FE4141F470014FF0000031
:1008400070BD41F0FE4141F4780170BD70B54FF0CC
:10085000FF0C4CF4E06C1CEA11541DBF1CEA13554C
:1008600094EA0C0F95EA0C0F00F0A7F8A4EB05042E
:1008700081EA030E52EA03354FEA013100F0888025
:100880004FEA03334FF0805545EA131343EA1263EE
:100890004FEA022245EA111545EA10654FEA0026A3
:1008A0000EF000419D4208BF964244F1FD0404F55C
:1008B000407402D25B084FEA3202B61A65EB0305B8
:1008C0005B084FEA32024FF480104FF4002CB6EB75
:1008D000020E75EB030E22BFB61A754640EA0C00F5
:1008E0005B084FEA3202B6EB020E75EB030E22BF35
:1008F000B61A754640EA5C005B084FEA3202B6EB76
:10090000020E75EB030E22BFB61A754640EA9C0034
:100910005B084FEA3202B6EB020E75EB030E22BF04
:10092000B61A754640EADC0055EA060E18D04FEAC2
:10093000051545EA16754FEA06164FEAC30343EA62
:1009400052734FEAC2025FEA1C1CC0D111F4801F2F
:100950000BD141EA00014FF000004FF0004CB6E728
:1009600011F4801F04BF01430020B4F1FD0C88BFC7
:10097000BCF5E06F3FF6AFAEB5EB030C04BFB6EBD2
:10098000020C5FEA500C50F1000041EB045170BDC5
:100990000EF0004E4EEA113114EB5C04C2BFD4EBF2
:1009A0000C0541EA045170BD41F480114FF0000E76
:1009B000013C90E645EA060E8DE60CEA135594EAF2
:1009C0000C0F08BF95EA0C0F3FF43BAF94EA0C0FF5
:1009D0000AD150EA01347FF434AF95EA0C0F7FF46A
:1009E00025AF104619462CE795EA0C0F06D152EABE
:1009F00003353FF4FDAE1046194622E750EA4106A2
:100A000018BF52EA43067FF4C5AE50EA41047FF4B2
:100A10000DAF52EA43057FF4EBAE12E74FF0FF3C17
:100A200006E000BF4FF0010C02E000BF4FF0010CE8
:100A30004DF804CD4FEA410C7FEA6C5C4FEA430C61
:100A400018BF7FEA6C5C1BD001B050EA410C0CBFB0
:100A500052EA430C91EA030F02BF90EA020F002012
:100A6000704710F1000F91EA030F58BF994208BF79
:100A700090422CBFD8176FEAE37040F00100704736
:100A80004FEA410C7FEA6C5C02D150EA013C07D18D
:100A90004FEA430C7FEA6C5CD6D152EA033CD3D0D8
:100AA0005DF8040B704700BF8446104662468C46D2
:100AB0001946634600E000BF01B5FFF7B7FF002805
:100AC00048BF10F1000F01BD4DF808EDFFF7F4FF2E
:100AD0000CBF012000205DF808FB00BF4DF808EDB9
:100AE000FFF7EAFF34BF012000205DF808FB00BFDC
:100AF0004DF808EDFFF7E0FF94BF012000205DF8FE
:100B000008FB00BF4DF808EDFFF7CEFF94BF0120B2
:100B100000205DF808FB00BF4DF808EDFFF7C4FFAB
:100B200034BF012000205DF808FB00BF4FEA410CF4
:100B30007FEA6C5C02D150EA013C0AD14FEA430CD7
:100B40007FEA6C5C02D152EA033C02D14FF0000014
:100B500070474FF0010070474FEA410212F5001252
:100B600015D211D56FF47873B3EB625212D94FEAF4
:100B7000C12343F0004343EA505311F0004F23FADE
:100B800002F018BF404270474FF00000704750EA33
:100B9000013005D111F0004008BF6FF000407047F0
:100BA0004FF00000704700BF4A0011D212F500124A
:100BB00011D20DD56FF47873B3EB62520ED44FEAB5
:100BC000C12343F0004343EA505323FA02F0704735
:100BD0004FF00000704750EA013002D14FF0FF3073
:100BE00070474FF0000070474FEA4102B2F1E04316
:100BF00024BFB3F5001CDCF1FE5C0DD901F0004C04
:100C00004FEAC0024CEA5070B2F1004F40EB830053
:100C100008BF20F00100704711F0804F21D113F17F
:100C20003872BCBF01F00040704741F480114FEAB8
:100C30005252C2F11802C2F1200C10FA0CF320FA41
:100C400002F018BF40F001004FEAC1234FEAD3235E
:100C500003FA0CFC40EA0C0023FA02F34FEA4303C8
:100C6000CCE77FEA625307D150EA01331EBF4FF051
:100C7000FE4040F44000704701F0004040F0FE406C
:100C800040F40000704700BF53B94AB9002908BFBB
:100C900000281CBF4FF0FF314FF0FF3000F0A4B927
:100CA000ADF1080C6DE904CE00F03CF8DDF804E08D
:100CB000DDE9022304B0704738B500220023044662
:100CC0000D46FFF70BFF28B920462946BDE83840FE
:100CD00000F00AB8204605F1004100F005F8404256
:100CE00061EB410138BD00BFD0B50C4B0022064678
:100CF0000F46FFF781FCFFF757FF0446FFF702FCA2
:100D0000074B0022FFF778FC02460B463046394677
:100D1000FFF7BAFAFFF748FF2146D0BD0000F03DCB
:100D20000000F0412DE9F047089D04468C46002B59
:100D300040F083808A42174647D9B2FA82F242B124
:100D4000C2F1200024FA00F09140974040EA010CE3
:100D500094404FEA1748230CBCFBF8F61FFA87FEB5
:100D600008FB16C143EA014306FB0EF1994209D97B
:100D7000FB1806F1FF3080F01981994240F216818C
:100D8000023E3B445B1AA4B2B3FBF8F008FB1033FD
:100D900044EA034400FB0EFEA64509D93C1900F1C4
:100DA000FF3380F00581A64540F2028102383C44C1
:100DB00040EA0640A4EB0E0400261DB1D4400023F7
:100DC000C5E900433146BDE8F08702B9FFDEB2FA5B
:100DD00082F2002A50D1CB1B4FEA174E1FFA87F838
:100DE0000126B3FBFEFC210C0EFB1C3341EA034140
:100DF00008FB0CF38B4207D979180CF1FF3002D2B3
:100E00008B4200F2E9808446C91AA3B2B1FBFEF01E
:100E10000EFB101143EA014408FB00F8A04507D976
:100E20003C1900F1FF3302D2A04500F2D9801846E8
:100E3000A4EB080440EA0C40BFE78B4209D9002D1F
:100E400000F0B1800026C5E9000130463146BDE81A
:100E5000F087B3FA83F6002E4AD18B4202D3824246
:100E600000F2B880841A61EB030101208C46002D4A
:100E7000A8D0C5E9004CA5E7C2F1200320FA03F68B
:100E8000974001FA02F04FEA174ED9403043030C65
:100E9000B1FBFEF61FFA87F80EFB161143EA014379
:100EA00006FB08F1994204FA02F409D9FB1806F18D
:100EB000FF3C80F08D80994240F28A80023E3B44A4
:100EC0005B1A81B2B3FBFEF00EFB103341EA034123
:100ED00000FB08F38B4207D9791800F1FF3C73D26D
:100EE0008B4271D902383944CB1A40EA064678E77A
:100EF000C6F1200C03FA06F422FA0CF31C4320FA84
:100F00000CF701FA06F34FEA144E21FA0CF11F43D5
:100F10003B0CB1FBFEF91FFA84F80EFB191143EAF2
:100F2000014109FB08FA8A4502FA06F200FA06F3C3
:100F300008D9611809F1FF3048D28A4546D9A9F18C
:100F400002092144A1EB0A01BFB2B1FBFEF00EFB86
:100F5000101147EA014700FB08F8B84507D9E7191F
:100F600000F1FF312ED2B8452CD90238274440EA8F
:100F70000940A7EB0807A0FB02894F45C646494632
:100F80001AD317D05DB1B3EB0E0267EB010707FA76
:100F90000CFCF2404CEA0202F740C5E900270026AB
:100FA0003146BDE8F0872E4628460BE70646E9E6BF
:100FB0001846FDE64345E5D2B8EB020E69EB0401A5
:100FC0000138DFE70846D2E760468DE78146B9E79A
:100FD000664675E730464AE7ACF1020C394413E740
:100FE00002383C4424E700BF704700BF80B400AF24
:100FF0000D4B1B685B6A9BB25B429BB21AB20B4BF8
:101000001A800A4BB3F900301A46094B1B68134487
:10101000074A1360044B1B6800225A6200BFBD469A
:101020005DF8047B704700BFA8020020F00200209A
:101030006C03002000000000B0B582B000AF786003
:101040007B681B68284A934241D1FFF7CFFF274BAB
:10105000B3F9003007EE903AF8EEE77A9FED247A84
:1010600067EE877ADFED236A87EEA67ADFED226AE4
:10107000C7EE267A214BC3ED007A204B5B681846F9
:10108000FFF762FA14A3D3E90023FFF7B5FA02468B
:101090000B4614461D46194B1B681846FFF754FAB9
:1010A0000FA3D3E90023FFF7A7FA02460B46204619
:1010B0002946FFF7EBF802460B4610461946FFF7A4
:1010C00093FD03460D4A53600D4B01221A7000BF79
:1010D0000837BD46B0BD00BF9A9999999999B93F13
:1010E000CDCCCCCCCCCCEC3F00040040F0020020B6
:1010F000000070428FC2F53C0000A544640300204C
:101100000102002080B487B000AF87ED030AC7ED6D
:10111000020A7860396097ED037AD7ED027A77EEAC
:10112000677AC7ED057A7B6893ED047AD7ED057A87
:10113000DFED1B6A67EEA67A77EE277A7B68C3ED50
:10114000047A7B6893ED007AD7ED057A27EE277A4B
:101150007B68D3ED016A7B68D3ED047A66EEA77AEB
:1011600037EE277A7B68D3ED026A7B68D3ED037A8A
:1011700097ED056A76EE677A66EEA76A9FED086AD4
:10118000C6EE867A77EE277A3B68C3ED007A7B68F5
:101190007A69DA6000BF1C37BD465DF8047B704792
:1011A0008FC2F53C80B485B000AF87ED010AD7ED62
:1011B000017AB7EE007AF4EEC77AF1EE10FA03DDA9
:1011C0004FF07E537B600AE0D7ED017ABFEE007AE4
:1011D000F4EEC77AF1EE10FA01D5174B7B60D7ED2C
:1011E000017A9FED167A67EE877AFDEEE77A17EEC1
:1011F000903AFB81B7F90E30002B09DD104B1B68CC
:1012000000225A630E4B1B68B7F90E209A630CE05C
:10121000FB895B429BB2FB81094B1B6800229A63EE
:10122000074B1B68B7F90E205A6300BF1437BD4641
:101230005DF8047B704700BF000080BF0000614480
:10124000F40200202DE9B04F88B008AF5C4B1B784A
:10125000302B68D15B4B00935B4B5C4A5C49584830
:1012600004F0BCFC584B1B78002B10D1564B1B785C
:1012700001225849584804F091FC5748FEF7A8FF4E
:1012800003469AB21E235449544802F0BAFF4E4B0B
:101290001B78012B16D1524B00221A60514B0022B1
:1012A0001A80494B1B7801224A494B4804F076FCCE
:1012B0004948FEF78DFF03469AB21E234649474828
:1012C00002F09FFF404B1B78022B2CD114220021EF
:1012D000454803F0DBFD4048FEF77AFF03461A4617
:1012E0000021424803F0D2FD414B4FF000021A604A
:1012F0003B4B00221A603B4B00221A803D4B4FF0C3
:1013000000021A60304B1B7801223249324804F047
:1013100045FC3148FEF75CFF03469AB21E232E4976
:101320002E4802F06EFF264B1B78312B3ED1304BFE
:101330000293314B0193314B00932B4B234A30499D
:101340001F4804F04BFC284B1B681846FFF7FCF8BD
:1013500004460D46244B5B681846FFF7F5F88046B7
:101360008946214B9B681846FFF7EEF882468B466C
:101370001F4B1B681846FFF7E7F802460B46CDE9FE
:101380000623CDE904ABCDE90289CDE9004502226F
:101390001C49114804F002FC0F48FEF719FF0346F0
:1013A0009AB21E230C490D4802F02BFF1422002193
:1013B000094803F06BFD00BFBD46BDE8B08F00BF1C
:1013C0003C0300200002002000000020300200202A
:1013D000789F0008849F000880020020700300208E
:1013E0006C030020F002002018020020640300209B
:1013F0002C02002014020020200200201C020020E9
:101400008C9F00089C9F000880B582B000AF786078
:101410007B681A68124B1B689A421DD1114B1B78CE
:101420000A2B0BD0104B1B785A1CD1B20E4A1170EC
:101430001A460C4B19780D4B995408E0094B1B7850
:101440000A2B04D1084B00221A70FFF7FBFE012281
:101450000449034802F067FF00BF0837BD4680BD5E
:10146000700300207C020020020200203C030020C8
:10147000B0B584B004AF00F0F3FC00F0A5F800F0C4
:101480002FFA00F00BF900F061F900F0ADF900F06F
:10149000FDF93E4801F05AFD04213D4801F084FF6A
:1014A00000213C4801F012FE04213A4801F00EFEF2
:1014B00001223949394802F036FF394BD3ED007A21
:1014C000B0EE670AFFF76EFE364B1B78002BF4D0A8
:1014D000344B00221A70344B1B78002B02D0012BA6
:1014E00005D04CE02E4B4FF000021A6047E02F4B26
:1014F000D3ED006A2E4B1B6807EE903AB8EEE77A00
:101500009FED2C6AC7EE067A9FED2B7A67EE877AFD
:1015100023492A48F0EE670AB0EE660AFFF7F2FDAB
:10152000234B1B6807EE903AB8EEE77ADFED216AAD
:10153000C7EE267A9FED207A67EE877A17EE900A3B
:10154000FFF702F804460D46154B1B681846FEF7D8
:10155000FBFF02460B46CDE90223CDE90045002200
:101560001749184804F01AFB1648FEF731FE0346E7
:101570009AB21E231349094802F043FE00BF142209
:101580000021104803F082FC97E700BF34020020DE
:10159000A8020020F40200207C020020700300203A
:1015A0001402002001020020000200202C02002072
:1015B0006C0300200000A5440000B4431802002082
:1015C000B49F00088002002080B594B000AF07F1FE
:1015D000200330220021184603F058FC07F10C03C9
:1015E00000221A605A609A60DA601A610023BB60B8
:1015F000284B1B6C274A43F080531364254B1B6C0C
:1016000003F08053BB60BB6800237B60224B1B68E8
:10161000214A43F4804313601F4B1B6803F480434B
:101620007B607B6801233B624FF480337B62022343
:10163000BB634FF48003FB6308233B644FF4A87340
:101640007B640223BB640423FB6407F12003184678
:1016500000F0B8FF0346002B01D000F077F90F230C
:10166000FB6002233B6100237B614FF4A053BB610D
:101670004FF4A053FB6107F10C030521184601F05C
:1016800019FA0346002B01D000F060F900BF503773
:10169000BD4680BD003802400070004080B58CB06F
:1016A00000AF07F10C0324220021184603F0EEFBE3
:1016B0003B1D00221A605A60224B234A1A60214BBC
:1016C00000225A601F4B00229A601E4B4FF6FF7299
:1016D000DA601C4B00221A611A4B00225A61194B26
:1016E00000229A610323FB6000233B6101237B619D
:1016F0000023BB610023FB6100233B6201237B626B
:101700000023BB620023FB6207F10C0319460D485E
:1017100001F0A4FD0346002B01D000F017F90023CF
:101720007B600023BB603B1D1946064802F08CFC21
:101730000346002B01D000F009F900BF3037BD4649
:1017400080BD00BFA80200200000014080B586B027
:1017500000AF07F1080300221A605A609A60DA604D
:101760003B4600221A605A601D4B1E4A1A601C4BF1
:1017700040F247325A601A4B00229A60184B40F6EA
:10178000B732DA60164B00221A61154B00229A61BB
:10179000134801F08BFB0346002B01D000F0D6F874
:1017A0004FF48053BB6007F1080319460C4802F060
:1017B0004FF80346002B01D000F0C8F800233B602F
:1017C00000237B603B461946054802F03DFC03467A
:1017D000002B01D000F0BAF800BF1837BD4680BD1D
:1017E000340200200004004080B588B000AF3B1DEB
:1017F00000221A605A609A60DA601A615A619A612E
:10180000204B214A1A601F4B40F28F625A601D4BD9
:1018100000229A601B4B40F2E732DA60194B00223B
:101820001A61184B00229A61164801F0FFFB03462B
:10183000002B01D000F08AF860237B600023BB609E
:101840000023FB6000237B613B1D002219460D48ED
:1018500001F040FF0346002B01D000F077F83B1D5C
:1018600004221946074801F035FF0346002B01D03A
:1018700000F06CF8034800F029F900BF2037BD469E
:1018800080BD00BFF40200200040014080B500AFE1
:10189000114B124A1A60104B4FF4E1325A600E4B52
:1018A00000229A600C4B0022DA600B4B00221A6176
:1018B000094B0C225A61084B00229A61064B002208
:1018C000DA61054802F050FC0346002B01D000F01D
:1018D0003DF800BF80BD00BF700300200044004001
:1018E00080B485B000AF0023FB60174B1B6B164A1A
:1018F00043F010031363144B1B6B03F01003FB60E6
:10190000FB680023BB60104B1B6B0F4A43F0800346
:1019100013630D4B1B6B03F08003BB60BB6800239C
:101920007B60094B1B6B084A43F001031363064BB2
:101930001B6B03F001037B607B6800BF1437BD465F
:101940005DF8047B704700BF0038024080B400AFF0
:1019500072B600BFFEE7000080B483B000AF002382
:101960007B60104B5B6C0F4A43F4804353640D4B18
:101970005B6C03F480437B607B6800233B60094B16
:101980001B6C084A43F080531364064B1B6C03F036
:1019900080533B603B6800BF0C37BD465DF8047B5D
:1019A000704700BF0038024080B58AB000AF786051
:1019B00007F1140300221A605A609A60DA601A6113
:1019C0007B681B68194A93422CD100233B61184B5A
:1019D0005B6C174A43F001035364154B5B6C03F0D7
:1019E00001033B613B690023FB60114B1B6B104AF9
:1019F00043F0100313630E4B1B6B03F01003FB60EB
:101A0000FB684FF420637B610223BB610023FB6111
:101A100000233B6201237B6207F11403194605484A
:101A200000F034FC00BF2837BD4680BD00000140F7
:101A3000003802400010024080B584B000AF7860EA
:101A40007B681B680E4A934215D10023FB600D4B47
:101A50001B6C0C4A43F0020313640A4B1B6C03F02B
:101A60000203FB60FB68002200211D2000F045FB03
:101A70001D2000F05EFB00BF1037BD4680BD00BFDB
:101A8000000400400038024080B485B000AF7860A8
:101A90007B681B680B4A93420DD10023FB600A4B05
:101AA0005B6C094A43F480335364074B5B6C03F46B
:101AB0008033FB60FB6800BF1437BD465DF8047BD4
:101AC000704700BF004001400038024080B588B038
:101AD00000AF786007F10C0300221A605A609A6028
:101AE000DA601A617B681B68124A93421DD1002399
:101AF000BB60114B1B6B104A43F0100313630E4B7A
:101B00001B6B03F01003BB60BB686023FB60022308
:101B10003B6100237B610023BB610323FB6107F171
:101B20000C031946054800F0B1FB00BF2037BD4645
:101B300080BD00BF0040014000380240001002405C
:101B400080B58AB000AF786007F1140300221A60F4
:101B50005A609A60DA601A617B681B681D4A93427A
:101B600033D100233B611C4B1B6C1B4A43F40033F5
:101B70001364194B1B6C03F400333B613B69002376
:101B8000FB60154B1B6B144A43F001031363124BAC
:101B90001B6B03F00103FB60FB680C237B610223DA
:101BA000BB610023FB6103233B6207237B6207F1D8
:101BB00014031946094800F069FB00220021262081
:101BC00000F09BFA262000F0B4FA00BF2837BD468B
:101BD00080BD00BF004400400038024000000240C9
:101BE00080B400AFFEE780B400AFFEE780B400AF82
:101BF000FEE780B400AFFEE780B400AFFEE780B43C
:101C000000AF00BFBD465DF8047B704780B400AFF5
:101C100000BFBD465DF8047B704780B400AF00BFD5
:101C2000BD465DF8047B704780B500AF00F06AF9EF
:101C300000BF80BD80B500AF024801F043FC00BF8B
:101C400080BD00BF3402002080B500AF024802F022
:101C50009BFB00BF80BD00BF7003002080B400AFBD
:101C600001231846BD465DF8047B704780B582B0FD
:101C700000AF7860396003F0DFF8034616221A607F
:101C80004FF0FF3318460837BD4680BD80B582B09F
:101C900000AF78604FF0FF317868FFF7E7FFFEE7AD
:101CA00080B586B000AFF860B9607A6000237B61D0
:101CB0000AE0AFF300800146BB685A1CBA60CAB2A2
:101CC0001A707B6901337B617A697B689A42F0DB29
:101CD0007B6818461837BD4680BD80B586B000AF1A
:101CE000F860B9607A6000237B6109E0BB685A1C28
:101CF000BA601B781846AFF300807B6901337B61C3
:101D00007A697B689A42F1DB7B6818461837BD46D2
:101D100080BD80B483B000AF78604FF0FF331846C9
:101D20000C37BD465DF8047B704780B483B000AFCC
:101D3000786039603B684FF400525A6000231846BF
:101D40000C37BD465DF8047B704780B483B000AFAC
:101D50007860012318460C37BD465DF8047B704758
:101D600080B485B000AFF860B9607A60002318468F
:101D70001437BD465DF8047B7047000080B586B01F
:101D800000AF7860144A154BD31A7B617B693B61C5
:101D9000134B1B68002B02D1114B124A1A60104BD7
:101DA0001A687B6813443A699A4207D203F044F8F0
:101DB00003460C221A604FF0FF3309E0084B1B6802
:101DC000FB60074B1A687B681344054A1360FB6885
:101DD00018461837BD4680BD0000022000040000F0
:101DE00004020020C803002080B400AF064BD3F8E3
:101DF0008830054A43F47003C2F8883000BFBD46FE
:101E00005DF8047B704700BF00ED00E0DFF834D0E0
:101E10000D480E490E4A002302E0D458C450043342
:101E2000C4188C42F9D30B4A0B4C002301E0136019
:101E30000432A242FBD3FFF7D7FF03F003F8FFF70A
:101E400017FB70470000022000000020E401002082
:101E5000C4A40008E4010020C8030020FEE700003D
:101E600080B500AF0E4B1B680D4A43F4007313603E
:101E70000B4B1B680A4A43F480631360084B1B68D2
:101E8000074A43F480731360032000F02BF900200D
:101E900000F008F8FFF760FD0023184680BD00BF82
:101EA000003C024080B582B000AF7860124B1A68E7
:101EB000124B1B7819464FF47A73B3FBF1F3B2FB64
:101EC000F3F3184600F043F90346002B01D0012339
:101ED0000EE07B680F2B0AD8002279684FF0FF30A4
:101EE00000F00BF9064A7B681360002300E0012331
:101EF00018460837BD4680BD040000200C000020B5
:101F00000800002080B400AF064B1B781A46064B31
:101F10001B681344044A136000BFBD465DF8047B90
:101F2000704700BF0C000020B403002080B400AF55
:101F3000034B1B681846BD465DF8047B704700BF25
:101F4000B403002080B485B000AF78607B6803F0F4
:101F50000703FB600C4BDB68BB60BA684FF6FF03FE
:101F60001340BB60FB681A02BB68134343F0BF63B6
:101F700043F40033BB60044ABB68D36000BF14372E
:101F8000BD465DF8047B704700ED00E080B400AF13
:101F9000044BDB681B0A03F007031846BD465DF8D7
:101FA000047B704700ED00E080B483B000AF0346CF
:101FB000FB7197F90730002B0BDBFB7903F01F0255
:101FC000074997F907305B09012000FA02F241F84E
:101FD000232000BF0C37BD465DF8047B704700BF6F
:101FE00000E100E080B483B000AF03463960FB71CC
:101FF00097F90730002B0ADB3B68DAB20C4997F9F6
:1020000007301201D2B20B4483F800230AE03B6888
:10201000DAB20849FB7903F00F03043B1201D2B294
:102020000B441A7600BF0C37BD465DF8047B704741
:1020300000E100E000ED00E080B489B000AFF8609E
:10204000B9607A60FB6803F00703FB61FB69C3F1C9
:102050000703042B28BF0423BB61FB690433062B51
:1020600002D9FB69033B00E000237B614FF0FF32A4
:10207000BB6902FA03F3DA43BB681A407B699A40F2
:102080004FF0FF317B6901FA03F3D9437B680B40C2
:10209000134318462437BD465DF8047B70470000A3
:1020A00080B582B000AF78607B68013BB3F1807F80
:1020B00001D301230FE00A4A7B68013B53600F21E3
:1020C0004FF0FF30FFF78EFF054B00229A60044B64
:1020D00007221A60002318460837BD4680BD00BF9E
:1020E00010E000E080B582B000AF78607868FFF75C
:1020F00029FF00BF0837BD4680BD80B586B000AF60
:102100000346B9607A60FB7300237B61FFF73EFFF3
:1021100078617A68B9687869FFF78EFF024697F9A7
:102120000F3011461846FFF75DFF00BF1837BD4658
:1021300080BD80B582B000AF0346FB7197F90730D0
:102140001846FFF731FF00BF0837BD4680BD80B598
:1021500082B000AF78607868FFF7A2FF03461846A8
:102160000837BD4680BD80B584B000AF78607B681D
:102170009B6DFB60FFF7DAFEB8607B6893F8353043
:10218000DBB2022B08D07B6880225A657B68002274
:1021900083F83420012352E07B681B681A687B684F
:1021A0001B6822F016021A607B681B685A697B68FC
:1021B0001B6822F080025A617B681B6C002B03D1E4
:1021C0007B689B6C002B07D07B681B681A687B6858
:1021D0001B6822F008021A607B681B681A687B681B
:1021E0001B6822F001021A6013E0FFF79FFE02460F
:1021F000BB68D31A052B0CD97B6820225A657B68F3
:10220000002283F834207B68032283F835200323DF
:1022100015E07B681B681B6803F00103002BE4D109
:102220007B68DB6D3F229A40FB689A607B680022E6
:1022300083F834207B68012283F835200023184678
:102240001037BD4680BD80B483B000AF78607B6836
:1022500093F83530DBB2022B04D07B6880225A65BC
:1022600001230CE07B68052283F835207B681B681E
:102270001A687B681B6822F001021A600023184666
:102280000C37BD465DF8047B7047000080B489B010
:1022900000AF7860396000237B6100233B6100233D
:1022A000BB610023FB616BE10122FB6902FA03F3CE
:1022B0007B613B681B687A6913403B613A697B69C3
:1022C0009A4240F05A813B685B6803F00303012B9C
:1022D00005D03B685B6803F00303022B30D17B68B9
:1022E0009B68BB61FB695B00032202FA03F3DB43DB
:1022F000BA691340BB613B68DA68FB695B0002FAAC
:1023000003F3BA691343BB617B68BA699A607B685F
:102310005B68BB610122FB6902FA03F3DB43BA6924
:102320001340BB613B685B681B0903F00102FB695A
:1023300002FA03F3BA691343BB617B68BA695A6056
:102340003B685B6803F00303032B17D07B68DB68F3
:10235000BB61FB695B00032202FA03F3DB43BA694A
:102360001340BB613B689A68FB695B0002FA03F3A8
:10237000BA691343BB617B68BA69DA603B685B6822
:1023800003F00303022B23D1FB69DA087B680832D0
:1023900053F82230BB61FB6903F007039B000F2257
:1023A00002FA03F3DB43BA691340BB613B681A6965
:1023B000FB6903F007039B0002FA03F3BA691343B6
:1023C000BB61FB69DA087B680832B96943F82210FF
:1023D0007B681B68BB61FB695B00032202FA03F3A5
:1023E000DB43BA691340BB613B685B6803F00302DF
:1023F000FB695B0002FA03F3BA691343BB617B68B4
:10240000BA691A603B685B6803F08053002B00F0E8
:10241000B4800023FB60604B5B6C5F4A43F48043F5
:1024200053645D4B5B6C03F48043FB60FB685B4A69
:10243000FB699B08023352F82330BB61FB6903F050
:1024400003039B000F2202FA03F3DB43BA69134034
:10245000BB617B68524A93422BD07B68514A9342BE
:1024600025D07B68504A93421FD07B684F4A9342E5
:1024700019D07B684E4A934213D07B684D4A9342F1
:102480000DD07B684C4A934207D07B684B4A9342FD
:1024900001D107230EE008230CE006230AE0052300
:1024A00008E0042306E0032304E0022302E0012302
:1024B00000E00023FA6902F0030292009340BA6937
:1024C0001343BB613549FB699B080233BA6941F884
:1024D00023203B4B1B68BB613B69DB43BA6913405C
:1024E000BB613B685B6803F48033002B03D0BA699F
:1024F0003B691343BB61324ABB691360304B5B6875
:10250000BB613B69DB43BA691340BB613B685B68F5
:1025100003F40033002B03D0BA693B691343BB615A
:10252000274ABB695360264B9B68BB613B69DB4311
:10253000BA691340BB613B685B6803F48013002BEE
:1025400003D0BA693B691343BB611D4ABB69936001
:102550001B4BDB68BB613B69DB43BA691340BB6162
:102560003B685B6803F40013002B03D0BA693B6936
:102570001343BB61124ABB69D360FB690133FB6142
:10258000FB690F2B7FF690AE00BF00BF2437BD461E
:102590005DF8047B704700BF0038024000380140FE
:1025A000000002400004024000080240000C02400B
:1025B000001002400014024000180240001C0240BB
:1025C000003C014080B586B000AF78607B68002B8E
:1025D00001D1012364E27B681B6803F00103002B37
:1025E00075D0A34B9B6803F00C03042B0CD0A04BBD
:1025F0009B6803F00C03082B12D19D4B5B6803F41E
:102600008003B3F5800F0BD1994B1B6803F40033A3
:10261000002B5BD07B685B68002B57D101233FE226
:102620007B685B68B3F5803F06D1914B1B68904A8D
:1026300043F4803313601DE07B685B68B3F5A02F23
:102640000CD18B4B1B688A4A43F480231360884B60
:102650001B68874A43F4803313600BE0844B1B688C
:10266000834A23F480331360814B1B68804A23F430
:10267000802313607B685B68002B13D0FFF756FC48
:10268000386108E0FFF752FC02463B69D31A642B1D
:1026900001D9032304E2764B1B6803F40033002BBB
:1026A000F0D014E0FFF742FC386108E0FFF73EFC91
:1026B00002463B69D31A642B01D90323F0E16C4B2A
:1026C0001B6803F40033002BF0D100E000BF7B68EF
:1026D0001B6803F00203002B63D0654B9B6803F07B
:1026E0000C03002B0BD0624B9B6803F00C03082BF0
:1026F0001CD15F4B5B6803F48003002B16D15C4B4D
:102700001B6803F00203002B05D07B68DB68012BFC
:1027100001D00123C4E1564B1B6823F0F8027B680B
:102720001B69DB00524913430B603AE07B68DB68AE
:10273000002B20D04F4B01221A60FFF7F7FB3861C6
:1027400008E0FFF7F3FB02463B69D31A022B01D9DD
:102750000323A5E1464B1B6803F00203002BF0D0D6
:10276000434B1B6823F0F8027B681B69DB00404980
:1027700013430B6015E03F4B00221A60FFF7D6FBB6
:10278000386108E0FFF7D2FB02463B69D31A022BFF
:1027900001D9032384E1364B1B6803F00203002BAD
:1027A000F0D17B681B6803F00803002B30D07B68F6
:1027B0005B69002B16D0304B01221A60FFF7B6FB85
:1027C000386108E0FFF7B2FB02463B69D31A022BDF
:1027D00001D9032364E1264B5B6F03F00203002B56
:1027E000F0D015E0244B00221A60FFF79FFB386100
:1027F00008E0FFF79BFB02463B69D31A022B01D985
:1028000003234DE11A4B5B6F03F00203002BF0D161
:102810007B681B6803F00403002B00F0A0800023FA
:10282000FB75134B1B6C03F08053002B0FD100235F
:10283000BB600F4B1B6C0E4A43F0805313640C4B70
:102840001B6C03F08053BB60BB680123FB750B4B13
:102850001B6803F48073002B21D1084B1B68074AC7
:1028600043F480731360FFF761FB386111E000BF30
:102870000038024000004742800E4742007000408E
:10288000FFF754FB02463B69D31A022B01D90323FD
:1028900006E1854B1B6803F48073002BF0D07B6846
:1028A0009B68012B06D1814B1B6F804A43F00103CB
:1028B00013671CE07B689B68052B0CD17B4B1B6F5F
:1028C0007A4A43F004031367784B1B6F774A43F04F
:1028D000010313670BE0754B1B6F744A23F0010370
:1028E0001367724B1B6F714A23F0040313677B68F5
:1028F0009B68002B15D0FFF719FB38610AE0FFF742
:1029000015FB02463B69D31A41F28832934201D942
:102910000323C5E0654B1B6F03F00203002BEED0D1
:1029200014E0FFF703FB38610AE0FFF7FFFA024605
:102930003B69D31A41F28832934201D90323AFE0B5
:102940005A4B1B6F03F00203002BEED1FB7D012BD2
:1029500005D1564B1B6C554A23F0805313647B689A
:102960009B69002B00F09B80504B9B6803F00C038D
:10297000082B5CD07B689B69022B41D14C4B002219
:102980001A60FFF7D3FA386108E0FFF7CFFA024682
:102990003B69D31A022B01D9032381E0434B1B6807
:1029A00003F00073002BF0D17B68DA697B681B6A47
:1029B0001A437B685B6A9B011A437B689B6A5B08CE
:1029C000013B1B041A437B68DB6A1B063749134330
:1029D0004B60374B01221A60FFF7A8FA386108E014
:1029E000FFF7A4FA02463B69D31A022B01D903234D
:1029F00056E02E4B1B6803F00073002BF0D04EE026
:102A00002B4B00221A60FFF791FA386108E0FFF7BC
:102A10008DFA02463B69D31A022B01D903233FE00A
:102A2000224B1B6803F00073002BF0D137E07B686A
:102A30009B69012B01D1012332E01C4B5B68FB60D9
:102A40007B689B69012B28D0FB6803F480027B68BC
:102A5000DB699A4221D1FB6803F03F027B681B6A65
:102A60009A421AD1FA6847F6C07313407A68526ADC
:102A70009201934211D1FB6803F440327B689B6A58
:102A80005B08013B1B049A4207D1FB6803F07062AC
:102A90007B68DB6A1B069A4201D0012300E0002319
:102AA00018461837BD4680BD00700040003802400F
:102AB0006000474280B584B000AF786039607B68C1
:102AC000002B01D10123CCE0684B1B6803F0070306
:102AD0003A689A420CD9654B3A68D2B21A70634B85
:102AE0001B6803F007033A689A4201D00123B8E05B
:102AF0007B681B6803F00203002B20D07B681B68F7
:102B000003F00403002B05D0594B9B68584A43F44B
:102B1000E05393607B681B6803F00803002B05D02B
:102B2000534B9B68524A43F460439360504B9B68FD
:102B300023F0F0027B689B684D4913438B607B68F0
:102B40001B6803F00103002B44D07B685B68012BFA
:102B500007D1474B1B6803F40033002B19D1012325
:102B60007FE07B685B68022B03D07B685B68032B8C
:102B700007D13F4B1B6803F00073002B09D10123E1
:102B80006FE03B4B1B6803F00203002B01D10123D4
:102B900067E0374B9B6823F003027B685B6834492E
:102BA00013438B60FFF7C2F9F8600AE0FFF7BEF944
:102BB0000246FB68D31A41F28832934201D90323BB
:102BC0004FE02B4B9B6803F00C027B685B689B001B
:102BD0009A42EBD1254B1B6803F007033A689A42EF
:102BE0000CD2224B3A68D2B21A70204B1B6803F009
:102BF00007033A689A4201D0012332E07B681B68E0
:102C000003F00403002B08D0194B9B6823F4E05217
:102C10007B68DB68164913438B607B681B6803F095
:102C20000803002B09D0124B9B6823F460427B6899
:102C30001B69DB000E4913438B6000F021F802464C
:102C40000B4B9B681B0903F00F030A49CB5C22FA6C
:102C500003F3094A1360094B1B681846FFF722F972
:102C6000002318461037BD4680BD00BF003C02401F
:102C700000380240D09F0008040000200800002017
:102C80002DE9B04384B000AF00237B600023FB60DC
:102C900000233B600023BB60674B9B6803F00C0381
:102CA000082B0DD0082B00F2BD80002B02D0042B86
:102CB00003D0B7E0614BBB60B7E0614BBB60B4E0F1
:102CC0005D4B5B6803F03F037B605B4B5B6803F429
:102CD0008003002B4DD0584B5B689B091A464FF080
:102CE000000340F2FF104FF0000102EA000803EA7F
:102CF0000109404649464FF000024FF000034B01E6
:102D000043EAD063420110461946B0EB080061EB7C
:102D100009014FF000024FF000038B0143EA90637A
:102D20008201121A63EB01034FF000004FF0000123
:102D3000D90041EA5271D00002460B4612EB08025C
:102D400043EB09034FF000004FF00001590241EA44
:102D5000D251500202460B46104619467B681A466D
:102D60004FF00003FDF790FF02460B461346FB6051
:102D70004AE0314B5B689B091A464FF0000340F272
:102D8000FF104FF0000102EA000403EA01052046AB
:102D900029464FF000024FF000034B0143EAD06395
:102DA000420110461946001B61EB05014FF000027D
:102DB0004FF000038B0143EA90638201121A63EB28
:102DC00001034FF000004FF00001D90041EA5271B9
:102DD000D00002460B46121945EB03034FF00000EA
:102DE0004FF00001990241EA9251900202460B46CF
:102DF000104619467B681A464FF00003FDF744FF62
:102E000002460B461346FB600B4B5B681B0C03F042
:102E1000030301335B003B60FA683B68B2FBF3F3EA
:102E2000BB6002E0054BBB6000BFBB6818461037B3
:102E3000BD46BDE8B08300BF003802400024F40066
:102E400000127A0080B400AF034B1B681846BD46E1
:102E50005DF8047B704700BF0400002080B500AF20
:102E6000FFF7F0FF0246054B9B689B0A03F0070340
:102E70000349CB5C22FA03F3184680BD00380240B8
:102E8000E09F000880B500AFFFF7DCFF0246054B6E
:102E90009B685B0B03F007030349CB5C22FA03F347
:102EA000184680BD00380240E09F000880B582B01F
:102EB00000AF78607B68002B01D1012341E07B6883
:102EC00093F83D30DBB2002B06D17B68002283F8FB
:102ED0003C207868FEF7B0FD7B68022283F83D2035
:102EE0007B681A687B6804331946104600F09CFD25
:102EF0007B68012283F846207B68012283F83E200C
:102F00007B68012283F83F207B68012283F8402000
:102F10007B68012283F841207B68012283F84220EC
:102F20007B68012283F843207B68012283F84420D8
:102F30007B68012283F845207B68012283F83D20CD
:102F4000002318460837BD4680BD000080B485B018
:102F500000AF78607B6893F83D30DBB2012B01D085
:102F600001234EE07B68022283F83D207B681B68CA
:102F7000DA687B681B6842F00102DA607B681B68D4
:102F8000234A934222D07B681B68B3F1804F1DD047
:102F90007B681B681F4A934218D07B681B681E4AD7
:102FA000934213D07B681B681C4A93420ED07B6807
:102FB0001B681B4A934209D07B681B68194A9342DD
:102FC00004D07B681B68184A934211D17B681B6848
:102FD0009B6803F00703FB60FB68062B10D07B683F
:102FE0001B681A687B681B6842F001021A6007E0E0
:102FF0007B681B681A687B681B6842F001021A60D4
:10300000002318461437BD465DF8047B704700BFA7
:10301000000001400004004000080040000C004097
:1030200000040140004001400018004080B582B01B
:1030300000AF78607B68002B01D1012341E07B6801
:1030400093F83D30DBB2002B06D17B68002283F879
:103050003C207868FEF718FD7B68022283F83D204B
:103060007B681A687B6804331946104600F0DCFC64
:103070007B68012283F846207B68012283F83E208A
:103080007B68012283F83F207B68012283F840207F
:103090007B68012283F841207B68012283F842206B
:1030A0007B68012283F843207B68012283F8442057
:1030B0007B68012283F845207B68012283F83D204C
:1030C000002318460837BD4680BD000080B584B097
:1030D00000AF786039603B68002B09D17B6893F8BA
:1030E0003E30DBB2012B14BF01230023DBB222E010
:1030F0003B68042B09D17B6893F83F30DBB2012B8E
:1031000014BF01230023DBB215E03B68082B09D173
:103110007B6893F84030DBB2012B14BF01230023FE
:10312000DBB208E07B6893F84130DBB2012B14BFBF
:1031300001230023DBB2002B01D001237CE03B689C
:10314000002B04D17B68022283F83E2013E03B6809
:10315000042B04D17B68022283F83F200BE03B68FC
:10316000082B04D17B68022283F8402003E07B68AF
:10317000022283F841207B681B68012239681846C7
:1031800000F03CFF7B681B682D4A934204D07B68AB
:103190001B682C4A934201D1012300E00023002B3D
:1031A00007D07B681B685A6C7B681B6842F400423E
:1031B0005A647B681B68224A934222D07B681B6852
:1031C000B3F1804F1DD07B681B681F4A934218D013
:1031D0007B681B681D4A934213D07B681B681C4A9E
:1031E00093420ED07B681B68164A934209D07B68D5
:1031F0001B68184A934204D07B681B68164A9342A6
:1032000011D17B681B689B6803F00703FB60FB68B8
:10321000062B10D07B681B681A687B681B6842F01D
:1032200001021A6007E07B681B681A687B681B68EC
:1032300042F001021A60002318461037BD4680BDD7
:10324000000001400004014000040040000800406C
:10325000000C0040004001400018004080B586B0DE
:1032600000AF786039607B68002B01D1012397E0C3
:103270007B6893F83D30DBB2002B06D17B680022DF
:1032800083F83C207868FEF78FFB7B68022283F886
:103290003D207B681B689B687A68126823F4804332
:1032A00023F0070393607B681A687B680433194630
:1032B000104600F0B9FB7B681B689B687B617B68EC
:1032C0001B689B693B617B681B681B6AFB603B68F2
:1032D0001B687A6913437B613B6923F4407323F0D5
:1032E00003033B613B689A683B689B691B0213437D
:1032F0003A6913433B613B6923F4406323F00C03B9
:103300003B613B6923F4704323F0F0033B613B686E
:10331000DA683B68DB691B0213433A6913433B617C
:103320003B681B691A013B681B6A1B0313433A691C
:1033300013433B61FB6823F02203FB60FB6823F02F
:103340008803FB603B685A683B685B691B01134359
:10335000FA681343FB607B681B687A699A607B6834
:103360001B683A699A617B681B68FA681A627B6815
:10337000012283F846207B68012283F83E207B6887
:10338000012283F83F207B68012283F842207B687A
:10339000012283F843207B68012283F83D2000232B
:1033A00018461837BD4680BD80B584B000AF786040
:1033B00039607B6893F83E30FB737B6893F83F304D
:1033C000BB737B6893F842307B737B6893F8433020
:1033D0003B733B68002B10D1FB7B012B02D17B7B25
:1033E000012B01D0012369E07B68022283F83E2093
:1033F0007B68022283F8422031E03B68042B10D125
:10340000BB7B012B02D13B7B012B01D0012355E07B
:103410007B68022283F83F207B68022283F84320E6
:103420001DE0FB7B012B08D1BB7B012B05D17B7BF6
:10343000012B02D13B7B012B01D001233EE07B68B5
:10344000022283F83E207B68022283F83F207B68BB
:10345000022283F842207B68022283F843203B68E3
:10346000002B03D03B68042B08D00FE07B681B685F
:1034700001220021184600F0C1FD16E07B681B68A0
:1034800001220421184600F0B9FD0EE07B681B689C
:1034900001220021184600F0B1FD7B681B68012263
:1034A0000421184600F0AAFD00BF7B681B681A685B
:1034B0007B681B6842F001021A600023184610372F
:1034C000BD4680BD80B582B000AF78607B681B6868
:1034D0001B6903F00203022B22D17B681B68DB68A7
:1034E00003F00203022B1BD17B681B686FF0020202
:1034F0001A617B6801221A777B681B689B6903F05D
:103500000303002B03D0786800F070FA05E07868B8
:1035100000F062FA786800F073FA7B6800221A778C
:103520007B681B681B6903F00403042B22D17B68B2
:103530001B68DB6803F00403042B1BD17B681B684A
:103540006FF004021A617B6802221A777B681B689D
:103550009B6903F44073002B03D0786800F046FAAF
:1035600005E0786800F038FA786800F049FA7B687E
:1035700000221A777B681B681B6903F00803082B7D
:1035800022D17B681B68DB6803F00803082B1BD182
:103590007B681B686FF008021A617B6804221A7747
:1035A0007B681B68DB6903F00303002B03D078689A
:1035B00000F01CFA05E0786800F00EFA786800F078
:1035C0001FFA7B6800221A777B681B681B6903F06F
:1035D0001003102B22D17B681B68DB6803F01003FB
:1035E000102B1BD17B681B686FF010021A617B687F
:1035F00008221A777B681B68DB6903F44073002B91
:1036000003D0786800F0F2F905E0786800F0E4F99A
:10361000786800F0F5F97B6800221A777B681B68F0
:103620001B6903F00103012B0ED17B681B68DB686B
:1036300003F00103012B07D17B681B686FF00102C7
:103640001A617868FDF7F8FC7B681B681B6903F05A
:103650008003802B0ED17B681B68DB6803F080033E
:10366000802B07D17B681B686FF080021A61786835
:1036700000F070FD7B681B681B6903F04003402B62
:103680000ED17B681B68DB6803F04003402B07D139
:103690007B681B686FF040021A61786800F0BAF925
:1036A0007B681B681B6903F02003202B0ED17B680D
:1036B0001B68DB6803F02003202B07D17B681B68A5
:1036C0006FF020021A61786800F03AFD00BF0837F9
:1036D000BD4680BD80B584B000AFF860B9607A6047
:1036E000FB6893F83C30012B01D10223ACE0FB686E
:1036F000012283F83C207B680C2B00F29F8001A202
:1037000052F823F0393700083D3800083D380008EA
:103710003D380008793700083D3800083D3800087A
:103720003D380008BB3700083D3800083D38000828
:103730003D380008FB370008FB681B68B96818466D
:1037400000F012FAFB681B689A69FB681B6842F07C
:1037500008029A61FB681B689A69FB681B6822F083
:1037600004029A61FB681B689969BB681A69FB6867
:103770001B680A439A6162E0FB681B68B9681846D7
:1037800000F062FAFB681B689A69FB681B6842F4E8
:1037900000629A61FB681B689A69FB681B6822F4E7
:1037A00080629A61FB681B689969BB681B691A0291
:1037B000FB681B680A439A6141E0FB681B68B968B3
:1037C000184600F0B7FAFB681B68DA69FB681B68EB
:1037D00042F00802DA61FB681B68DA69FB681B6863
:1037E00022F00402DA61FB681B68D969BB681A69B8
:1037F000FB681B680A43DA6121E0FB681B68B96853
:10380000184600F00BFBFB681B68DA69FB681B6855
:1038100042F40062DA61FB681B68DA69FB681B68C6
:1038200022F48062DA61FB681B68D969BB681B6996
:103830001A02FB681B680A43DA6100E000BFFB68FC
:10384000002283F83C20002318461037BD4680BD77
:1038500080B584B000AF786039607B6893F83C3005
:10386000012B01D10223B3E07B68012283F83C20C5
:103870007B68022283F83D207B681B689B68FB60A5
:10388000FB6823F07703FB60FB6823F47F43FB6056
:103890007B681B68FA689A603B681B68B3F5005F39
:1038A0003ED0B3F5005F00F28780B3F5805F00F093
:1038B0008580B3F5805F7FD8702B1AD0702B7BD8B2
:1038C000602B50D0602B77D8502B3CD0502B73D826
:1038D000402B58D0402B6FD8302B64D0302B6BD876
:1038E000202B60D0202B67D8002B5CD0102B5AD017
:1038F00062E07B6818683B6899683B685A683B6877
:10390000DB6800F05BFB7B681B689B68FB60FB6807
:1039100043F07703FB607B681B68FA689A604EE0AF
:103920007B6818683B6899683B685A683B68DB6845
:1039300000F044FB7B681B689A687B681B6842F454
:1039400080429A603BE07B6818683B6859683B6836
:10395000DB681A4600F0B8FA7B681B6850211846ED
:1039600000F011FB2BE07B6818683B6859683B68E6
:10397000DB681A4600F0D7FA7B681B68602118469E
:1039800000F001FB1BE07B6818683B6859683B68E6
:10399000DB681A4600F098FA7B681B6840211846DD
:1039A00000F0F1FA0BE07B681A683B681B68194667
:1039B000104600F0E8FA02E000BF00E000BF7B68BC
:1039C000012283F83D207B68002283F83C200023FD
:1039D00018461037BD4680BD80B483B000AF786014
:1039E00000BF0C37BD465DF8047B704780B483B0E0
:1039F00000AF786000BF0C37BD465DF8047B7047B0
:103A000080B483B000AF786000BF0C37BD465DF86E
:103A1000047B704780B483B000AF786000BF0C3780
:103A2000BD465DF8047B704780B485B000AF786018
:103A300039607B681B68FB607B68404A934213D007
:103A40007B68B3F1804F0FD07B683D4A93420BD027
:103A50007B683C4A934207D07B683B4A934203D041
:103A60007B683A4A934208D1FB6823F07003FB60FD
:103A70003B685B68FA681343FB607B682F4A93429C
:103A80002BD07B68B3F1804F27D07B682C4A9342C0
:103A900023D07B682B4A93421FD07B682A4A9342EB
:103AA0001BD07B68294A934217D07B68284A9342EF
:103AB00013D07B68274A93420FD07B68264A9342F3
:103AC0000BD07B68254A934207D07B68244A9342F7
:103AD00003D07B68234A934208D1FB6823F44073E8
:103AE000FB603B68DB68FA681343FB60FB6823F00C
:103AF00080023B685B691343FB607B68FA681A606D
:103B00003B689A687B68DA623B681A687B689A62ED
:103B10007B680A4A934203D07B680C4A934203D1E4
:103B20003B681A697B681A637B6801225A6100BF8F
:103B30001437BD465DF8047B704700BF00000140AC
:103B40000004004000080040000C00400004014058
:103B5000004001400044014000480140001800407E
:103B6000001C00400020004080B487B000AF7860A7
:103B700039607B681B6A23F001027B681A627B68EC
:103B80001B6A7B617B685B683B617B689B69FB6050
:103B9000FB6823F07003FB60FB6823F00303FB600A
:103BA0003B681B68FA681343FB607B6923F00203E0
:103BB0007B613B689B687A6913437B617B68204A21
:103BC000934203D07B681F4A93420CD17B6923F058
:103BD00008037B613B68DB687A6913437B617B691F
:103BE00023F004037B617B68154A934203D07B6812
:103BF000144A934211D13B6923F480733B613B69C2
:103C000023F400733B613B685B693A6913433B6192
:103C10003B689B693A6913433B617B683A695A6028
:103C20007B68FA689A613B685A687B685A637B686C
:103C30007A691A6200BF1C37BD465DF8047B704785
:103C4000000001400004014080B487B000AF7860FC
:103C500039607B681B6A23F010027B681A627B68FC
:103C60001B6A7B617B685B683B617B689B69FB606F
:103C7000FB6823F4E043FB60FB6823F44073FB60C4
:103C80003B681B681B02FA681343FB607B6923F0E7
:103C900020037B613B689B681B017A6913437B614E
:103CA0007B68224A934203D07B68214A93420DD11C
:103CB0007B6923F080037B613B68DB681B017A69C9
:103CC00013437B617B6923F040037B617B68174A68
:103CD000934203D07B68164A934213D13B6923F485
:103CE00080633B613B6923F400633B613B685B6934
:103CF0009B003A6913433B613B689B699B003A69AF
:103D000013433B617B683A695A607B68FA689A6141
:103D10003B685A687B689A637B687A691A6200BF5D
:103D20001C37BD465DF8047B704700BF00000140B2
:103D30000004014080B487B000AF786039607B68D0
:103D40001B6A23F480727B681A627B681B6A7B6142
:103D50007B685B683B617B68DB69FB60FB6823F029
:103D60007003FB60FB6823F00303FB603B681B6888
:103D7000FA681343FB607B6923F400737B613B6843
:103D80009B681B027A6913437B617B68214A9342DB
:103D900003D07B68204A93420DD17B6923F40063F2
:103DA0007B613B68DB681B027A6913437B617B693B
:103DB00023F480637B617B68164A934203D07B685F
:103DC000154A934213D13B6923F480533B613B690D
:103DD00023F400533B613B685B691B013A69134361
:103DE0003B613B689B691B013A6913433B617B68FC
:103DF0003A695A607B68FA68DA613B685A687B689E
:103E0000DA637B687A691A6200BF1C37BD465DF8C9
:103E1000047B7047000001400004014080B487B07B
:103E200000AF786039607B681B6A23F480527B683E
:103E30001A627B681B6A3B617B685B687B617B689D
:103E4000DB69FB60FB6823F4E043FB60FB6823F461
:103E50004073FB603B681B681B02FA681343FB60FE
:103E60003B6923F400533B613B689B681B033A6941
:103E700013433B617B68124A934203D07B68114A2B
:103E8000934209D17B6923F480437B613B685B6982
:103E90009B017A6913437B617B687A695A607B680E
:103EA000FA68DA613B685A687B681A647B683A6929
:103EB0001A6200BF1C37BD465DF8047B704700BF27
:103EC000000001400004014080B487B000AFF860FA
:103ED000B9607A60FB681B6A7B61FB681B6A23F030
:103EE0000102FB681A62FB689B693B613B6923F036
:103EF000F0033B617B681B013A6913433B617B69BB
:103F000023F00A037B617A69BB6813437B61FB681A
:103F10003A699A61FB687A691A6200BF1C37BD462C
:103F20005DF8047B704780B487B000AFF860B9607B
:103F30007A60FB681B6A23F01002FB681A62FB6858
:103F40009B697B61FB681B6A3B617B6923F470435F
:103F50007B617B681B037A6913437B613B6923F0B8
:103F6000A0033B61BB681B013A6913433B61FB68DB
:103F70007A699A61FB683A691A6200BF1C37BD46CC
:103F80005DF8047B704780B485B000AF786039601D
:103F90007B689B68FB60FB6823F07003FB603A68FA
:103FA000FB68134343F00703FB607B68FA689A6081
:103FB00000BF1437BD465DF8047B704780B487B0FE
:103FC00000AFF860B9607A603B60FB689B687B611A
:103FD0007B6923F47F437B613B681A027B681A4349
:103FE000BB6813437A6913437B61FB687A699A6003
:103FF00000BF1C37BD465DF8047B704780B487B0B6
:1040000000AFF860B9607A60BB6803F01F0301225B
:1040100002FA03F37B61FB681A6A7B69DB431A408F
:10402000FB681A62FB681A6ABB6803F01F037968B1
:1040300001FA03F31A43FB681A6200BF1C37BD463E
:104040005DF8047B7047000080B485B000AF7860F5
:1040500039607B6893F83C30012B01D102235AE090
:104060007B68012283F83C207B68022283F83D2094
:104070007B681B685B68FB607B681B689B68BB6038
:10408000FB6823F07003FB603B681B68FA6813430E
:10409000FB607B681B68FA685A607B681B68214A72
:1040A000934222D07B681B68B3F1804F1DD07B68A0
:1040B0001B681D4A934218D07B681B681B4A9342B9
:1040C00013D07B681B681A4A93420ED07B681B682A
:1040D000184A934209D07B681B68174A934204D060
:1040E0007B681B68154A93420CD1BB6823F08003A0
:1040F000BB603B685B68BA681343BB607B681B6846
:10410000BA689A607B68012283F83D207B680022B0
:1041100083F83C20002318461437BD465DF8047B25
:10412000704700BF0000014000040040000800404C
:10413000000C004000040140004001400018004015
:1041400080B483B000AF786000BF0C37BD465DF827
:10415000047B704780B483B000AF786000BF0C3739
:10416000BD465DF8047B704780B582B000AF7860D3
:104170007B68002B01D101233FE07B6893F83D3041
:10418000DBB2002B06D17B68002283F83C207868E4
:10419000FDF7D6FC7B68242283F83D207B681B68F2
:1041A000DA687B681B6822F40052DA60786800F0F5
:1041B0007BFC7B681B681A697B681B6822F4904251
:1041C0001A617B681B685A697B681B6822F02A02A7
:1041D0005A617B681B68DA687B681B6842F400528E
:1041E000DA607B6800221A647B68202283F83D2015
:1041F0007B68202283F83E20002318460837BD46FE
:1042000080BD80B58AB002AFF860B9603B601346EC
:10421000FB8000237B61FB6893F83D30DBB2202BF1
:104220007CD1BB68002B02D0FB88002B01D101237D
:1042300075E0FB6893F83C30012B01D102236EE05E
:10424000FB68012283F83C20FB6800221A64FB68AB
:10425000212283F83D20FDF769FE7861FB68FA882A
:104260009A84FB68FA88DA84FB689B68B3F5805F00
:1042700008D1FB681B69002B04D10023FB61BB68DC
:10428000BB6103E0BB68FB610023BB61FB680022EC
:1042900083F83C202AE03B6800937B690022802160
:1042A000F86800F03DFA0346002B01D0032336E006
:1042B000FB69002B0BD1BB691B881A46FB681B6886
:1042C000C2F308025A60BB690233BB6107E0FB69B5
:1042D0001A78FB681B685A60FB690133FB61FB6855
:1042E000DB8C9BB2013B9AB2FB68DA84FB68DB8C07
:1042F0009BB2002BCFD13B6800937B690022402109
:10430000F86800F00DFA0346002B01D0032306E005
:10431000FB68202283F83D20002300E0022318469A
:104320002037BD4680BD80B584B000AFF860B9606D
:104330001346FB80FB6893F83E30DBB2202B1DD187
:10434000BB68002B02D0FB88002B01D1012316E0B3
:10435000FB6893F83C30012B01D102230FE0FB688E
:10436000012283F83C20FB6800221A63FB881A466E
:10437000B968F86800F01EFA034600E00223184608
:104380001037BD4680BD000080B58AB000AF7860B0
:104390007B681B681B687B627B681B68DB683B6211
:1043A0007B681B685B69FB610023BB6100237B6149
:1043B0007B6A03F00F03BB61BB69002B0DD17B6AE5
:1043C00003F02003002B08D03B6A03F02003002BEE
:1043D00003D0786800F0D1FA7CE1BB69002B00F0D3
:1043E000B180FB6903F00103002B05D13B6A03F4A4
:1043F0009073002B00F0A6807B6A03F00103002B72
:104400000AD03B6A03F48073002B05D07B681B6CD9
:1044100043F001027B681A647B6A03F00403002BFB
:104420000AD0FB6903F00103002B05D07B681B6CED
:1044300043F002027B681A647B6A03F00203002BDC
:104440000AD0FB6903F00103002B05D07B681B6CCD
:1044500043F004027B681A647B6A03F00803002BB4
:104460000FD03B6A03F02003002B04D1FB6903F05B
:104470000103002B05D07B681B6C43F008027B68AE
:104480001A647B681B6C002B00F01F817B6A03F0B1
:104490002003002B07D03B6A03F02003002B02D03F
:1044A000786800F06AFA7B681B685B6903F0400378
:1044B000402B0CBF01230023DBB27B617B681B6CAC
:1044C00003F00803002B02D17B69002B31D0786800
:1044D00000F0AAF97B681B685B6903F04003402B7E
:1044E00023D17B681B685A697B681B6822F04002F5
:1044F0005A617B689B6B002B13D07B689B6B774A60
:104500001A657B689B6B1846FDF79DFE0346002BE2
:1045100016D07B689B6B1B6D7A68926B1046984730
:104520000EE0786800F0E6F80AE0786800F0E2F85B
:1045300006E0786800F0DEF87B6800221A64C4E0C8
:1045400000BFC2E07B681B6B012B40F0A2807B6A3E
:1045500003F01003002B00F09C803B6A03F0100373
:10456000002B00F096800023FB607B681B681B68B3
:10457000FB607B681B685B68FB60FB687B681B6893
:104580005B6903F04003402B4FD17B689B6B1B683A
:104590005B683B823B8A002B00F099807B689B8D97
:1045A0003A8A9A4280F093807B683A8ADA857B68FF
:1045B0009B6BDB69B3F5807F2BD07B681B68DA6867
:1045C0007B681B6822F48072DA607B681B685A691A
:1045D0007B681B6822F001025A617B681B685A697C
:1045E0007B681B6822F040025A617B68202283F8B6
:1045F0003E207B6800221A637B681B68DA687B6850
:104600001B6822F01002DA607B689B6B1846FDF78E
:10461000AAFD7B689A8D7B68DB8D9BB2D31A9BB217
:104620001946786800F070F851E07B689A8D7B68D5
:10463000DB8D9BB2D31A7B827B68DB8D9BB2002B18
:1046400047D07B8A002B44D07B681B68DA687B6884
:104650001B6822F49072DA607B681B685A697B6879
:104660001B6822F001025A617B68202283F83E20F9
:104670007B6800221A637B681B68DA687B681B68AA
:1046800022F01002DA607B8A1946786800F03CF864
:104690001FE07B6A03F08003002B08D03B6A03F025
:1046A0008003002B03D0786800F0FFF812E07B6AEB
:1046B00003F04003002B0DD03B6A03F04003002BB6
:1046C00008D0786800F041F904E000BF02E000BFC4
:1046D00000E000BF2837BD4680BD00BF834800080A
:1046E00080B483B000AF786000BF0C37BD465DF882
:1046F000047B704780B483B000AF786000BF0C3794
:10470000BD465DF8047B704780B483B000AF78602D
:104710000B467B8000BF0C37BD465DF8047B7047BD
:1047200080B584B000AFF860B9603B601346FB71A0
:104730002CE0BB69B3F1FF3F28D0BB69002B07D049
:10474000FDF7F4FB02463B68D31ABA699A421DD2C0
:10475000FB681B68DA68FB681B6822F4D072DA60B9
:10476000FB681B685A69FB681B6822F001025A61EA
:10477000FB68202283F83D20FB68202283F83E203E
:10478000FB68002283F83C2003230FE0FB681B68D2
:104790001A68BB681340BA689A420CBF0123002311
:1047A000DBB21A46FB799A42C3D000231846103771
:1047B000BD4680BD80B485B000AFF860B9601346D7
:1047C000FB80FB68BA689A62FB68FA889A85FB6886
:1047D000FA88DA85FB6800221A64FB68222283F8D3
:1047E0003E20FB68002283F83C20FB681B68DA68E7
:1047F000FB681B6842F48072DA60FB681B685A69C8
:10480000FB681B6842F001025A61FB681B68DA68AA
:10481000FB681B6842F02002DA6000231846143758
:10482000BD465DF8047B704780B483B000AF78600C
:104830007B681B68DA687B681B6822F49072DA6018
:104840007B681B685A697B681B6822F001025A6109
:104850007B681B6B012B07D17B681B68DA687B6860
:104860001B6822F01002DA607B68202283F83E2069
:104870007B6800221A6300BF0C37BD465DF8047BDD
:10488000704780B584B000AF78607B689B6BFB603D
:10489000FB680022DA85FB680022DA84F868FFF7FB
:1048A00029FF00BF1037BD4680BD80B485B000AF82
:1048B00078607B6893F83D30DBB2212B3ED17B687A
:1048C0009B68B3F5805F14D17B681B69002B10D106
:1048D0007B681B6AFB60FB681B881A467B681B6849
:1048E000C2F308025A607B681B6A9A1C7B681A62D2
:1048F00008E07B681B6A591C7A6811621A787B6829
:104900001B685A607B68DB8C9BB2013B9BB27A6868
:104910001946D184002B0FD17B681B68DA687B684D
:104920001B6822F08002DA607B681B68DA687B68AB
:104930001B6842F04002DA60002300E002231846C0
:104940001437BD465DF8047B704780B582B000AF78
:1049500078607B681B68DA687B681B6822F040021D
:10496000DA607B68202283F83D207868FFF7B8FE84
:10497000002318460837BD4680BD80B584B000AF1F
:1049800078607B6893F83E30DBB2222B40F0878062
:104990007B689B68B3F5805F17D17B681B69002B30
:1049A00013D10023FB607B689B6ABB607B681B683C
:1049B0005B689BB2C3F308039AB2BB681A807B683A
:1049C0009B6A9A1C7B689A6226E07B689B6AFB6004
:1049D0000023BB607B689B68B3F5805F07D07B6872
:1049E0009B68002B0AD17B681B69002B06D17B6872
:1049F0001B685B68DAB2FB681A7008E07B681B68AA
:104A00005B68DBB203F07F03DAB2FB681A707B6885
:104A10009B6A5A1C7B689A627B68DB8D9BB2013B68
:104A20009BB27A681946D185002B36D17B681B680A
:104A3000DA687B681B6822F02002DA607B681B68FA
:104A4000DA687B681B6822F48072DA607B681B6816
:104A50005A697B681B6822F001025A617B68202238
:104A600083F83E207B681B6B012B0ED17B681B6893
:104A7000DA687B681B6822F01002DA607B689B8D25
:104A800019467868FFF740FE02E07868FCF7BCFC46
:104A90007B6800221A63002302E0002300E0022367
:104AA00018461037BD4680BD2DE9F04F9FB000AFCE
:104AB000F866FB6E1B681B6923F44050FB6ED968D7
:104AC000FB6E1A6840EA01031361FB6E9A68FB6E85
:104AD0001B691A43FB6E5B691A43FB6EDB69134368
:104AE0003B67FB6E1B68DB6823F4164121F00C0169
:104AF000FB6E1A683B6F0B43D360FB6E1B685B69F0
:104B000023F44070FB6E9969FB6E1A6840EA01035A
:104B10005361FB6E1A68C54B9A4204D0FB6E1A684B
:104B2000C34B9A4203D1FEF7ADF9786702E0FEF776
:104B300095F97867FB6EDB69B3F5004F40F0B680FE
:104B40007B6F1C464FF0000522462B4691183964B6
:104B50005B417B64D7E91023121945EB03034FF047
:104B600000004FF00001D90041EA5271D000024626
:104B70000B46111939666B417B66FB6E5B681A4602
:104B80004FF000039118B9635B41FB63D7E90E2333
:104B9000D7E91801FCF778F802460B46A54BA3FBB2
:104BA00002235B091E017B6F1C464FF00005224665
:104BB0002B46911839635B417B63D7E90C231219AB
:104BC00045EB03034FF000004FF00001D90041EA2C
:104BD0005271D00002460B461119B9656B41FB6555
:104BE000FB6E5B681A464FF000039118B9625B4197
:104BF000FB62D7E90A23D7E91601FCF745F802461C
:104C00000B468C4BA3FB02135B09642101FB03F3EE
:104C1000D31ADB003233874AA2FB03235B095B0014
:104C200003F4F8731E447B6F18464FF000010246F0
:104C30000B4694183C625B417B62D7E9082312184B
:104C400041EB03034FF000044FF00005DD0045EA9F
:104C50005275D40022462B4614183C654B417B65A7
:104C6000FB6E5B681A464FF000039118B9615B4117
:104C7000FB61D7E90623D7E91401FCF705F80246E2
:104C80000B466C4BA3FB02135B09642101FB03F38E
:104C9000D31ADB003233674AA2FB03235B0903F01C
:104CA0000702FB6E1B6832449A60B9E07B6F1C46BA
:104CB0004FF0000522462B46911839615B417B611C
:104CC000D7E90423121945EB03034FF000004FF01E
:104CD0000001D90041EA5271D00002460B4612EBA6
:104CE000040843EB0509FB6E5B6818464FF00001B2
:104CF0004FF000024FF000038B0043EA90738200F4
:104D000040464946FBF7C0FF02460B46494BA3FB12
:104D100002235B091E017B6F18464FF0000102461B
:104D20000B469418BC605B41FB60D7E90223121864
:104D300041EB03034FF000044FF00005DD0045EAAE
:104D40005275D40022462B461418BC644B41FB64B8
:104D5000FB6E5B6818464FF000014FF000024FF009
:104D600000038B0043EA90738200D7E91201FBF73E
:104D70008BFF02460B462F4BA3FB02135B096421FA
:104D800001FB03F3D31A1B0132332A4AA2FB03238C
:104D90005B0903F0F0031E447B6F18464FF00001DF
:104DA00002460B4694183C605B417B60D7E90023C8
:104DB000121841EB03034FF000044FF00005DD0033
:104DC00045EA5275D40022462B4612EB000A43EB0B
:104DD000010BFB6E5B6818464FF000014FF00002BC
:104DE0004FF000038B0043EA90738200504659460F
:104DF000FBF74AFF02460B460E4BA3FB02135B096F
:104E0000642101FB03F3D31A1B013233094AA2FBCD
:104E100003235B0903F00F02FB6E1B6832449A60A8
:104E200000BF7C37BD46BDE8F08F00BF00100140D9
:104E3000001401401F85EB51014B1868704700BFFB
:104E40001000002070B50D4D0D4C641BA410002601
:104E5000A64209D10B4D0C4C05F082F8641BA4103E
:104E60000026A64205D170BD55F8043B984701368F
:104E7000EEE755F8043B98470136F2E7BCA400087A
:104E8000BCA40008BCA40008C0A400080244034657
:104E9000934200D1704703F8011BF9E72DE9FF4762
:104EA00055EC104B002D0E4619462B46BBBF05F1A5
:104EB00000431D4600232D230B700D9BDDF830A011
:104EC000914623F02008BCBF22461446B8F1460F95
:104ED00005D0B8F1450F00D10136022100E00321D1
:104EE00003AB019302AB009345EC104B53463246A3
:104EF00001F046FEB8F1470F074602D119F0010F45
:104F000022D0B8F1460F07EB060910D13B78302BC1
:104F10000AD10022002320462946FBF7D5FD18B907
:104F2000C6F10106CAF80060DAF8003099440022A0
:104F3000002320462946FBF7C7FD08B1CDF80C90A9
:104F40003022039B4B4507D3039B0E9ADB1B38464D
:104F5000136004B0BDE8F087591C03911A70F0E7A4
:104F6000F7B503460029B8BF494203F8022BB4BF86
:104F70002D222B22092942702ADD0DF10704A446B7
:104F80000A27A6460A4691FBF7F607FB16153035A9
:104F9000632A04F1FF340EF8015C3146F1DC303154
:104FA000AEF1020504F8011C441C294661450AD3F0
:104FB0000DF10902A2EB0E02654588BF00221344E1
:104FC000181A03B0F0BD11F8012B04F8012FEDE71A
:104FD000302330318370C170031DF1E72DE9F04FAC
:104FE0002DED028B8DB00C46DDF8608016461F4615
:104FF000054602F021FFD0F800A05046FBF7E8F884
:1050000000230A9323680593D8F8003094F818B069
:10501000073323F0070303F10802C8F80020D3E99F
:105020000023C4E91223D4E9128929F0004307932D
:10503000CDF8188008EE100A9F4BDDE906014FF00D
:10504000FF32FBF773FD88BBDDE906019A4B4FF099
:10505000FF32FBF74DFD48BB002200234046494686
:10506000FBF73CFD10B12D2384F84330934B94485B
:10507000BBF1470F94BF9846804603232361059BED
:1050800023F0040222604FF00009009733460BAA78
:105090002146284600F0D8F9013040F090804FF0CA
:1050A000FF300DB0BDEC028BBDE8F08F42464B46A1
:1050B00040464946FBF73AFD40B14B46002BBCBF8A
:1050C0002D2384F843307F487F4BD1E763680BF092
:1050D000DF0206925A1C3FD106236360059B61687C
:1050E00043F48062002303930AABCDE901B309AB1B
:1050F00049EC108B009322600DF123032846FFF743
:10510000CDFE069B0999472B804608D1C81C02DBBF
:105110006368994241DDABF1020B5FFA8BFBBBF197
:10512000650F20D801395A4604F150000991FFF764
:1051300017FF0A9A1318012A8146236102DC2268AC
:10514000D20701D5013323619DF82330002B9CD079
:105150002D2384F8433098E7069A472ABED1002BC6
:10516000BCD10123B9E7BBF1660F18D100296368F0
:105170000BDD216113B92268D00702D501330B443E
:105180002361A1654FF00009DEE713B92268D20759
:1051900001D50233F4E70123F2E74FF0670B0A9BD6
:1051A000994205DB23682161D807EAD54B1CE7E764
:1051B0000029D4BFC1F1020201221344E0E72368B1
:1051C0005A0507D42369424631462846B84701307C
:1051D0002CD164E7BBF1650F40F2E080D4E9120105
:1051E00000220023FBF770FC002834D0374A01234B
:1051F00031462846B84701303FF451AFDDE9092375
:105200009A4202DB2368D80710D518EE103A5246AE
:1052100031462846B84701303FF441AF4FF000080F
:1052200004F11A090A9B013B434509DC23689B07EB
:1052300000F10581E0680B9B9842B8BF184630E743
:1052400001234A4631462846B84701303FF427AF8C
:1052500008F10108E6E7099B002B39DC1B4A012312
:1052600031462846B84701303FF419AFDDE909233C
:10527000134302D12368D907D8D518EE103A524605
:1052800031462846B84701303FF409AF4FF00009D6
:1052900004F11A0A099B5B424B4501DC0A9B92E729
:1052A0000123524631462846B84701303FF4F7AE55
:1052B00009F10109EEE700BFFFFFEF7FEC9F000857
:1052C000F09F0008F89F0008F49F000801A4000860
:1052D0000A9AA36D9A42A8BF1A46002A914637DC63
:1052E0004FF0000B29EAE97904F11A02A36D059346
:1052F000A3EB09035B4533DCDDE909239A423BDB81
:105300002368DA0738D40A9A059B0999D31AA2EBC5
:1053100001099945A8BF9946B9F1000F35DC4FF056
:10532000000829EAE97904F11A0ADDE909239B1A40
:10533000A3EB090343457FF779AF0123524631467A
:105340002846B84701303FF4AAAE08F10108ECE75F
:105350001346314642462846B8470130C0D19EE642
:105360000123314628460592B84701303FF497AEF5
:10537000059A0BF1010BB9E718EE103A5246314687
:105380002846B8470130BED189E6059A4B464244CB
:1053900031462846B8470130C1D180E60A9A012A31
:1053A00001DCDB0738D50123424631462846B847A1
:1053B00001303FF474AE18EE103A5246314628469A
:1053C000B84701303FF46BAED4E91201002200234C
:1053D000FBF77AFBD8B90A9B08F10102013B314681
:1053E0002846B84701300ED159E6012352463146CE
:1053F0002846B84701303FF452AE08F101080A9B35
:10540000013B4345F1DC4B4604F15002DCE64FF032
:10541000000804F11A0AF2E701234246DFE70123FC
:105420004A4631462846B84701303FF438AE08F1C5
:105430000108E3680B995B1A4345F0DCFAE64FF08C
:10544000000804F11909F4E72DE9F04716469946DA
:105450008A680B69DDF820809342B8BF1346336039
:1054600091F8432007460C460AB1013333602368A4
:10547000990642BF336802333360256815F006058C
:1054800006D104F1190AE36832689B1AAB4226DCA4
:1054900094F84320131E226818BF012392062BD4D0
:1054A00004F1430249463846C04701301ED0236804
:1054B000E568326803F00603042B08BFAD1AA36841
:1054C00022690CBF25EAE57500259342C4BF9B1AEB
:1054D000ED1800261A34B5421AD1002008E0012345
:1054E000524649463846C047013003D14FF0FF309D
:1054F000BDE8F0870135C6E7E1185A1C302081F875
:105500004300224494F8451082F843100233C7E761
:105510000123224649463846C0470130E6D00136CD
:10552000D9E700002DE9FF470C469146277E0C99EC
:10553000782F80469A4604F1430207D8622F0AD892
:10554000002F00F0D880582F00F0A38004F142060D
:1055500084F842703AE0A7F16303152BF6D801A056
:1055600050F823F0BD550008D15500084D550008EE
:105570004D5500084D5500084D550008D1550008FF
:105580004D5500084D5500084D5500084D55000873
:10559000DD56000801560008BF5600084D550008AA
:1055A0004D550008FF5600084D55000801560008EB
:1055B0004D5500084D550008C75600080B681A1DC8
:1055C0001B680A6004F1420684F842300123A3E01C
:1055D000256808682E0600F104030AD505680B60EB
:1055E000002D03DA2D236D4284F843305E480A23F0
:1055F00019E015F0400F05680B6018BF2DB2EFE7FA
:105600000B682568181D0860280601D51D6802E092
:105610006906FBD51D8854486F2F0CBF08230A2349
:10562000002184F843106668A660002EA2BF21689E
:1056300021F0040121600DB9002E4DD01646B5FBB6
:10564000F3F103FB1157C75D06F8017D2F46BB42FE
:105650000D46F4D9082B0BD12368DF0708D5236941
:1056600061689942DEBF302306F8013C06F1FF363F
:10567000921B2261CDF800A04B4603AA214640466A
:10568000FFF7E2FE01304CD14FF0FF3004B0BDE82F
:10569000F087354884F8457023680E681F0656F871
:1056A000045B0E6014D5D90744BF43F02003236088
:1056B0001DB9236823F0200323601023B0E723687B
:1056C00043F0200323607823284884F84530E3E73B
:1056D0005E0648BFADB2E6E71646BBE70B68266834
:1056E00060691D1D0D6035061B6801D5186002E05C
:1056F0007106FBD51880002323611646BAE70B68B4
:105700001A1D0A601E68626800213046FAF768FDBB
:1057100008B1801B606063682361002384F8433014
:10572000A8E72369324649464046D0470130ABD00E
:1057300023689B0713D4E068039B9842B8BF1846C0
:10574000A4E70123324649464046D04701309BD06A
:105750000135E36803995B1AAB42F2DCEBE7002505
:1057600004F11906F5E700BFFC9F00080DA0000832
:105770002DE9F04F87B0174603938B685A1EB2F598
:10578000AE7F83BF6FF4AE755B190293002386BFB3
:1057900040F25D138B6002930B688B46002543F447
:1057A000F0634BF81C3BCDE9045580460C465E4641
:1057B000AA46A9460195A26852B13B681B784E2BB8
:1057C00064D8402B3CD8A3F12B01C8B20E283AD99B
:1057D000B9F1000F03D0236823F4807323600AF12A
:1057E000FF3ABAF1010F00F213815E4500F2058124
:1057F0000125284607B0BDE8F08FA3F161020D2A0C
:10580000E6D801A151F822F047590008D157000805
:10581000D1570008D1570008A75900087F59000840
:10582000D1570008D157000855590008D157000832
:10583000D1570008D1570008D15700080D5900086A
:10584000A3F14102DBE70E29C2D801A050F821F0F4
:10585000FF580008D1570008FF5800089359000866
:10586000D1570008AD580008E9580008E958000869
:10587000E9580008E9580008E9580008E958000804
:10588000E9580008E9580008E95800086E2B09D8C3
:10589000602BB2D8542B77D0592B99D1072D97D1A3
:1058A000082529E0742B6FD0792BF6E72168C8050D
:1058B0001AD5029B21F08001216009F101091BB179
:1058C000013B01320293A260A368013BA3602369FC
:1058D000013323617B68013B002B7B6040F38480B4
:1058E0003B6801333B6066E71AEB050F7FF470AF4E
:1058F000226822F4C072226006F8013BE4E72268C5
:1059000010067FF565AF22F08002F4E7BAF1000FD0
:105910000ED1B9F1000F0ED1226802F4E061B1F5A9
:10592000E06F08D122F4F06222604FF0010AE3E751
:10593000BAF1020F55D0012D02D0042D7FF448AFEB
:105940000135EDB2D8E7BAF1010F7FF441AF4FF066
:10595000020AD1E77DB9B9F1000F7FF43CAF2268AC
:1059600002F4E061B1F5E06F7FF439AF22F4F06248
:1059700022600125C0E7032DE2D0052DDEE7022DD0
:105980007FF426AF0325B7E7062D7FF421AF072567
:10599000B2E7226891057FF51BAF22F420722260E6
:1059A000CDF80490A8E7226802F4A061B1F5806FF9
:1059B00006D050057FF50CAFB9F1000F3FF40FAFE3
:1059C000910558BF019922F4F06258BFA9EB01017B
:1059D00042F4C07258BFCDE9041622604FF00009AE
:1059E0008AE74FF0030A87E7D4F88031394640460A
:1059F000984700283FF4DFAEEAE6D4F87C3116F889
:105A0000011D3A46404698472369013B2361ECE675
:105A10006B1E062B25D8022D36D85E457FF6E8AEE4
:105A2000D4F87C3116F8011D3A4640469847236960
:105A3000013B2361F1E70298D4F87C3110F8011D95
:105A400002903A46404698472369013B23610AF198
:105A5000FF3A5FFA8AFABAF1020FECD1033DEDB2D8
:105A6000761B2368DA052FD55B0510D55E457FF6DA
:105A7000BFAED4F87C3116F8011D3A46404698472F
:105A80002369013B2361F1E7AA460296DFE716F896
:105A9000011C2369652903F1FF3306F1FF352361FA
:105AA0000CD045290AD0D4F87C313A464046984774
:105AB000236916F8021C013BB51E2361D4F87C3122
:105AC0003A46404698472E46256815F0100558D1AD
:105AD0003570236803F4C063B3F5806F1CD1019B5C
